:020000040040BA
:1000000018304020010C4000B10C4000B10C400001
:10001000B10C4000B10C4000B10C400000000000E9
:10002000000000000000000000000000B10C4000D3
:10003000B10C400000000000B10C4000B10C4000C9
:10004000B10C4000B10C4000B10C4000B10C4000BC
:10005000B10C4000B10C4000B10C4000B10C4000AC
:10006000B10C400000000000B9074000D10740007B
:10007000E9074000B10C4000B10C4000B10C400059
:100080000108400019084000B10C4000B10C4000CC
:10009000B10C4000B10C4000B10C4000B10C40006C
:1000A000B10C4000B10C4000B10C4000B10C40005C
:1000B000B10C4000B10C4000B10C4000B10C40004C
:1000C000B10C4000B10C4000B10C4000B10C40003C
:1000D00000000000B10C400000000000B10C400026
:1000E000B10C4000B10C4000B10C4000B10C40001C
:1000F000B10C4000B10C4000B10C4000B10C40000C
:10010000B10C4000B10C4000B10C4000B10C4000FB
:10011000B10C4000000000000000000000000000E2
:10012000B10C4000B10C4000B10C4000B10C4000DB
:10013000B10C400000000000B10C4000B10C4000C8
:1001400010B5054C237833B9044B13B10448AFF311
:1001500000800123237010BD640F402000000000C8
:10016000F81B40000C4B43B10C480D4910B5AFF3E0
:1001700000800C48036823B910BD0A48036833B9EE
:100180007047094B002BF7D0BDE810401847064BCD
:10019000002BF5D0184700BF00000000F81B4000FE
:1001A000680F4020F81B40000000000080B582B0BE
:1001B00000AF78607B68072B31D801A252F823F09A
:1001C0001D024000E1014000E9014000F101400052
:1001D000F901400001024000090240001302400002
:1001E0000020114B98471AE001200F4B984716E06A
:1001F00000200E4B984712E010200C4B98470EE061
:1002000020200A4B98470AE03E210020084B9847DF
:1002100005E03E210120064B984700E000BF00BFEB
:100220000837BD4680BD00BF310940009D09400030
:100230000D0A400080B582B000AF78607B68072B64
:1002400026D801A252F823F0690240006D02400056
:100250006D0240007F0240007F0240007F024000AC
:100260007F0240007F024000012312E00B4B9847C1
:100270000346002B14BF01230023DBB209E0084B27
:1002800098470346002B14BF01230023DBB200E094
:10029000002318460837BD4680BD00BF69094000ED
:1002A000850A400080B483B000AF78607B68072B7C
:1002B00025D801A252F823F0D9024000DF02400005
:1002C000E5024000EB024000EF024000F302400074
:1002D000F7024000FB0240004FF4FA4310E04FF4F5
:1002E00000430DE04FF400430AE0084B08E0084BE0
:1002F00006E0084B04E0074B02E0064B00E0002359
:1003000018460C37BD465DF8047B704700093D0078
:1003100000127A00001BB70080B582B000AF034620
:10032000FB7100BFFB791846054B9847034683F0E5
:100330000103DBB2002BF5D100BF0837BD4680BDFD
:100340003502400080B586B000AFF8607A603B604F
:100350000B46FB727B68002B07D13B68002B04D156
:10036000FB684FF470021A6019E0FB7A18460E4BD6
:10037000984702467B68B2FBF3F37B617B693A687E
:1003800002FB03F37B613B68013B1A04074B1340FC
:100390007A68D2B2134343F47C52FB681A6000BF00
:1003A0001837BD4680BD00BFA50240000000FF0712
:1003B00080B582B000AF786039603B68002B08D10F
:1003C000094B9847094A7B681B6843F000539362C6
:1003D00005E0064A7B681B6843F48033D36100BFA5
:1003E0000837BD4680BD00BFA10A400000060E4090
:1003F00080B582B000AF78607B68002B03D1054BDD
:100400009847034602E0044B9847034618460837CE
:10041000BD4680BDBD0A4000D90A400080B582B00B
:1004200000AF0346FB71FB79033B042B08D8FB7933
:100430001846064B9847FB791846054B984700E04D
:1004400000BF00BF0837BD4680BD00BFAD01400002
:100450001903400080B582B000AF786000BF7868B3
:10046000044B98470346002BF9D000231846083761
:10047000BD4680BDF103400080B500AF0620054BAE
:100480009847024613469B0013449A0013441846AB
:1004900080BD00BFA502400080B500AF024B984769
:1004A0000346184680BD00BF7904400090B583B074
:1004B00000AF1348134B98470620134B9847381D3D
:1004C000192301220621114CA0473B1D002118468B
:1004D0000F4B984700200F4B984702200E4B984730
:1004E00000200E4B98470E4B98470E4B98470346FB
:1004F0001846044B984700BF0C37BD4690BD00BF5F
:1005000000A3E111210E40001D04400045034000FE
:10051000B10340005504400031084000AD084000E0
:10052000B90C40009904400080B485B000AFF86079
:10053000B9607A607B68002B03D0FB68BA685A66A2
:1005400002E0FB68BA681A6600BF1437BD465DF862
:10055000047B704780B483B000AF786039607B68FB
:100560003A681A6300BF0C37BD465DF8047B7047DC
:1005700080B483B000AF786039607B683A685A63B2
:1005800000BF0C37BD465DF8047B704780B487B070
:1005900000AFF860B9607A60BB68B3F1405F03D028
:1005A000BB68B3F1605F03D1FB689B6B7B6102E0CA
:1005B000FB68DB6B7B617A697B681340002B01D1A0
:1005C000002300E0012318461C37BD465DF8047B7C
:1005D0007047000080B584B000AFF860B9607A6001
:1005E000B968F868194B98477B6803F001031A460D
:1005F000B968F868164B98477B6803F00A03002B2C
:1006000003D0FB68BA681A6202E0FB68BA685A62F3
:100610007B6803F00203002B04D0FB68BA68C3F8C0
:10062000802008E07B6803F00803002B03D0FB6800
:10063000BA68C3F88420FB68BA685A61FB68BA6874
:100640001A6000BF1037BD4680BD00BFB90640002C
:100650002905400080B584B000AFF860B9607A60C9
:100660003B60B968F868124B9847BA69B968F8688E
:10067000104B98473B68002B03D0FB68BA681A659B
:1006800002E0FB68BA685A657B68002B03D0FB6800
:10069000BA681A6302E0FB68BA685A63FB68BA6812
:1006A0001A61FB68BA681A6000BF1037BD4680BD8A
:1006B000B90640002905400080B483B000AF7860DF
:1006C00039607B683A685A6400BF0C37BD465DF8F4
:1006D000047B704780B483B000AF78607B68DB6CCC
:1006E00018460C37BD465DF8047B704780B483B074
:1006F00000AF78607B689B6C18460C37BD465DF890
:10070000047B704780B584B000AF7860396078684A
:10071000264B9847F8607868254B98470246FB6857
:100720001340FB60FB68002B3CD00023BB6034E02F
:10073000204ABB681B0113441A683B689A4226D1C1
:100740001C4ABB681B01134404331A68FB6813403E
:10075000002B1CD0174ABB681B0113440C331B68C9
:100760001449BA6812010A4410681249BA681201A1
:100770000A4404321268114698470E4ABB681B01AE
:10078000134404331B68DB43FA681340FB60BB6807
:100790000133BB60BB68062B03D8FB68002BC7D1B5
:1007A00000E000BF00BF1037BD4680BDD506400049
:1007B000ED064000800F402080B500AF0A210248BE
:1007C000024B984700BF80BD000E0E400507400059
:1007D00080B500AF0B210248024B984700BF80BD97
:1007E00000100E400507400080B500AF0C21024804
:1007F000024B984700BF80BD00120E400507400025
:1008000080B500AF10210248024B984700BF80BD61
:1008100000140E400507400080B500AF11210248CA
:10082000024B984700BF80BD00160E4005074000F0
:1008300080B483B000AF78607B68013B032B1AD88B
:1008400001A252F823F000BF590840005F084000A1
:10085000670840006F08400000237B600EE04FF403
:1008600080737B600AE04FF440737B6006E04FF4D6
:1008700000737B6002E000237B6000BF0A490A4BE3
:100880001B6B23F440727B6813430B6300BF064B62
:100890009B6E03F00803002BF9D000BF0C37BD4658
:1008A0005DF8047B704700BF00060E4080B485B041
:1008B00000AF78601D491D4B1B6B23F070027B68F5
:1008C00013430B634FF48053FB6007E0FB68002B7E
:1008D00001D1012323E0FB68013BFB60134B9B6EBE
:1008E00003F00803002BF1D0104A104B1B6B23F0D0
:1008F000030343F0020313634FF48053FB6007E0EC
:10090000FB68002B01D1012309E0FB68013BFB6080
:10091000064B9B6E03F00803002BF1D00023184612
:100920001437BD465DF8047B704700BF00060E40DB
:1009300080B483B000AF78607B68012B05D1074994
:10094000064B9A68064B13438B60044B054A1A60AA
:1009500000BF0C37BD465DF8047B704710180E4091
:10096000000010A5080000A580B400AF094B5B692A
:1009700003F08003002B07D0074B9B6E03F080032E
:10098000002B01D0012300E000231846BD465DF88E
:10099000047B704710180E4000060E4080B483B0F0
:1009A00000AF78601549154B1A6A154B13430B625B
:1009B00000BF124B9B6E03F40033002BF9D00F499C
:1009C0000E4B1A6A0F4B13407A68134343F45C13BF
:1009D0000B6200BF094B9B6E03F40033002BF9D070
:1009E0000649064B1A6A084B134043F45C130B622A
:1009F00000BF0C37BD465DF8047B704700060E4013
:100A0000080037008FFFC8FFFFFFC8FE80B483B027
:100A100000AF786039607B68002B08D01349134B16
:100A20001B6A134A1A40134B13430B6218E00F4919
:100A30000E4B1A6A104B13403A68120292B21A43D4
:100A40000E4B13430B6200BF084B9B6E03F0010378
:100A5000002BF9D00549054B1A6A094B13430B6269
:100A600000BF0C37BD465DF8047B704700060E40A2
:100A7000FCFFC8FE02003701FCFFC8FF0100370081
:100A80000000370180B400AF044B9B6E03F4803349
:100A90001846BD465DF8047B704700BF00060E4057
:100AA00080B400AF044B4FF000529A6200BFBD46C5
:100AB0005DF8047B704700BF00060E4080B400AFB5
:100AC000044B9B6E03F002031846BD465DF8047BA1
:100AD000704700BF00060E4080B400AF044B9B6E11
:100AE00003F040031846BD465DF8047B704700BF25
:100AF00000060E4080B483B000AF78607B683F2B67
:100B000001D901232FE07B681F2B13D8194B9A6959
:100B100001217B6801FA03F31A4001217B6801FA85
:100B200003F39A421ED0134A01217B6801FA03F3B2
:100B3000136117E07B68203B7B600E4BD3F80821E4
:100B400001217B6801FA03F31A4001217B6801FA55
:100B500003F39A4206D0074A01217B6801FA03F3A6
:100B6000C2F80031002318460C37BD465DF8047BFF
:100B7000704700BF00060E4080B483B000AFEFF3B3
:100B800010837B607B68002B0CBF01230023DBB24A
:100B90003B6072B6BFF35F8F044B00221A703B6854
:100BA00018460C37BD465DF8047B70470A004020AC
:100BB00080B483B000AF78607B68002B14BF012342
:100BC0000023DBB218460C37BD465DF8047B704746
:100BD00080B582B000AF78607868074B98470346CD
:100BE000002B05D0054B01221A70BFF35F8F62B650
:100BF00000BF0837BD4680BDB10B40000A00402051
:100C000080B584B000AF1E4BFB601E4BBB60FA6822
:100C1000BB689A420CD007E0BB681A1DBA60FA683C
:100C2000111DF96012681A60BB68174A9342F3D32A
:100C3000164BBB6004E0BB681A1DBA6000221A6044
:100C4000BB68134A9342F6D3124BFB60124AFB680F
:100C500023F07F039360114B98477860104A104B44
:100C60001B6843F470031360BFF34F8FBFF36F8FA4
:100C700078680C4B98470C4B98470C4B9847FEE70D
:100C8000F81B400000004020640F4020640F40200B
:100C9000141040200000400000ED00E0790B4000FF
:100CA00088ED00E0D10B4000591A4000911340003C
:100CB00080B400AFFEE7000080B400AF524B1B6B66
:100CC00003F00303012B14D0012B02D3022B38D0E5
:100CD0007AE04E4B5B6903F08003002B04D04C4B51
:100CE0004FF400421A606FE0494B4FF4FA421A6029
:100CF0006AE0454B1B6A03F08073002B03D0444B22
:100D0000444A1A6060E0424B434A1A603E4B1B6AF9
:100D100003F07003102B04D0202B08D0002B0ED032
:100D20000EE03B4B1B685B00394A136008E0384B10
:100D30001A6813465B001344354A136000E000BF95
:100D400042E0314B1B6A03F08073002B03D0304B21
:100D5000304A1A601CE02E4B2F4A1A602A4B1B6A3D
:100D600003F07003102B04D0202B08D0002B0ED0E2
:100D70000EE0274B1B685B00254A136008E0244BFC
:100D80001A6813465B001344214A136000E000BF59
:100D90001D4B1B6B03F00303022B14D11A4B9B6AF0
:100DA0001B0CC3F30A030133194A126802FB03F355
:100DB000174A1360144B9B6ADBB2154A1268B2FBE8
:100DC000F3F3134A136000BF0F4B1B6B03F0700368
:100DD000702B08D10E4B1B68104AA2FB03235B0843
:100DE0000B4A13600AE0084B1B6B1B0903F0070357
:100DF000074A126822FA03F3054A136000BFBD4692
:100E00005DF8047B704700BF00060E4010180E40CE
:100E10000C004020001BB70000093D00ABAAAAAAA5
:100E200080B483B000AF78607B68194A934204D8DD
:100E3000184B4FF080621A6023E07B68164A934299
:100E400003D8144B154A1A601BE07B68144A93427E
:100E500003D8104B134A1A6013E07B68124A93427E
:100E600003D80C4B114A1A600BE07B68104A93427E
:100E700004D8084B4FF004221A6002E0054B0D4ADB
:100E80001A6000BF0C37BD465DF8047B704700BF99
:100E9000FF2C3101000C0E40FF59620200010004DA
:100EA000FF86930300020004FFB3C40400030004A0
:100EB000FFE0F5050005000480B483B000AF786062
:100EC0007B68072B25D801A252F823F0ED0E4000D5
:100ED000F30E4000F90E4000FF0E4000030F4000EB
:100EE000070F40000B0F40000F0F40004FF4FA4374
:100EF00010E04FF400430DE04FF400430AE0084BCC
:100F000008E0084B06E0084B04E0074B02E0064B04
:100F100000E0002318460C37BD465DF8047B70479F
:100F200000093D0000127A00001BB70080B500AF39
:100F30000620054B9847024613469B0013449A002F
:100F40001344184680BD00BFB90E400080B500AF05
:100F5000024B98470346184680BD00BF2D0F400046
:100F60002DE9F84F00AF244B9847034619464FF040
:100F700000020B4614464FEA441B4BEAD36B4FEA80
:100F8000431A53465C465B1A64EB02044FEA840939
:100F900049EA93794FEA830843464C465B1844EB91
:100FA0000204E60046EA5376DD002B463446194635
:100FB000224641F22B734FF00004CD1842EB040699
:100FC000284631460D4C41F22C724FF00003A047E9
:100FD00003460C4618460A4B984700BF4FF4005290
:100FE0004FF020510748084B98470346002BF5D196
:100FF00000BFBDE8F88F00BF4D0F4000491740000B
:101000000100402000120E408D054000F0B589B06F
:1010100000AFF860B9607A600023FB6118E14FF41B
:1010200000524FF020518F488F4B98470346002BBA
:1010300001D18E4B9847FB699B00FA6813441B68EB
:101040008B4A92FBF3F37B614FF0806189488A4BB6
:1010500098470023BB6194E04FF400518748884BC8
:1010600098477B690133022B28D97B69002B00DA72
:1010700001335B101D464FEAE576824B98470346E5
:101080004FF0000403FB06F105FB04F20A44A5FB44
:101090000334224414467C494FF000025D1844EBAF
:1010A000020628463146794C794A4FF00003A047A2
:1010B00003460C461846774B984716E0714B984705
:1010C00003464FF0000470494FF000025D1844EBF6
:1010D0000206284631466D4C6D4A4FF00003A0478A
:1010E00003460C4618466B4B98474FF40051634833
:1010F000614B98477B690133022B28D97B69002B10
:1011000000DA01335B101D464FEAE5765D4B9847E8
:1011100003464FF0000403FB06F105FB04F20A440A
:10112000A5FB03342244144657494FF000025D18D2
:1011300044EB020628463146544C554A4FF0000312
:10114000A04703460C461846524B984716E04D4BB5
:10115000984703464FF000044B494FF000025D18DA
:1011600044EB020628463146484C494A4FF00003FA
:10117000A04703460C461846464B9847BB690133C7
:10118000BB61FB699B00BA6813441B684FF47A7219
:1011900002FB03F27B6992FBF3F2BB699A423FF7D1
:1011A0005BAF4FF080613348354B9847FB699B003C
:1011B000BA6813441B6840F24C4202FB03F3002B55
:1011C0002CD0FB699B00BA6813441B6840F24C4268
:1011D00002FB03F31D464FEAE5762A4B9847034688
:1011E0004FF0000403FB06F105FB04F20A44A5FBE3
:1011F00003342244144624494FF000025D1844EBA6
:10120000020628463146214C214A4FF00003A047F0
:1012100003460C4618461F4B984716E0194B984753
:1012200003464FF0000418494FF000025D1844EBEC
:10123000020628463146154C154A4FF00003A047D8
:1012400003460C461846134B9847FB690133FB6174
:10125000FA697B689A42FFF6E2AE00BF2437BD46CA
:10126000F0BD00BF00120E408D054000610F400030
:1012700040420F0000140E4071054000000E0E4069
:10128000550540004D0F4000DF835A0049174000CC
:10129000E0835A000100402090B583B002AF344B88
:1012A0009847344B4FF400425A600C20324B984719
:1012B00000230093002300224FF480712F48304C0C
:1012C000A0470C202C4B98470023009300230022BA
:1012D0004FF4002129482A4CA0471020264B98475C
:1012E00000230093002300224FF080612548244C06
:1012F000A0471020204B9847002300930023002292
:101300004FF400611F481E4CA0470A201A4B984713
:10131000012204211C481D4B98471020164B98476A
:1013200001224FF080411748184B98470C20124B70
:10133000984701224FF400511048144B98470A2057
:101340000D4B984701224FF400610F480F4B98470F
:101350000A20094B984700230093002300224FF4F2
:1013600000510948064CA04700BF0437BD4690BD58
:10137000AD04400050180E40F50A400000120E4027
:101380005506400000140E40000E0E40D5054000EA
:101390002DE9F04BADF53C5D00AF744B9847002351
:1013A00042F6FC623A441360002342F6F8623A4483
:1013B00013602AE06E4A42F6F8633B441B6852F819
:1013C000231041F644733B4442F6F8623A441268F3
:1013D00043F82210674A42F6F8633B441B6852F810
:1013E000231041F644733B4442F6F8623A441268D3
:1013F00002F5FA7243F8221042F6F8633B441B6888
:10140000013342F6F8623A44136042F6F8633B4413
:101410001B68CA2BCED9002342F6F4623A4413600B
:101420002CE0554A42F6F4633B441B6852F8231003
:10143000524B07F53C52134442F6F4623A441268A8
:1014400043F822104E4A42F6F4633B441B6852F8BC
:1014500023104A4B07F53C52134442F6F4623A44D7
:10146000126802F5FA7243F8221042F6F4633B4424
:101470001B68013342F6F4623A44136042F6F463A7
:101480003B441B684D2BCCD9002342F6F0623A4412
:1014900013602CE03B4A42F6F0633B441B6852F871
:1014A0002310394B07F53C52134442F6F0623A449C
:1014B000126843F82210354A42F6F0633B441B6839
:1014C00052F82310304B07F53C52134442F6F062B9
:1014D0003A44126802F5FA7243F8221042F6F063B9
:1014E0003B441B68013342F6F0623A44136042F613
:1014F000F0633B441B68372BCCD94FF080424FF050
:1015000020512348234B9847034642F6E8623A4469
:10151000136004224FF020511F481E4B984703468A
:1015200042F6E4623A44136042F6E4633B441B68CB
:10153000002B40F0AD8042F6FC633B441B68013356
:1015400042F6FC623A44136042F6FC633B441B687B
:10155000042B04DD002342F6FC623A4413600023AE
:1015600042F6EC623A44136088E000BF99124000F2
:10157000100040203C03402068064020A4E0FFFF0C
:10158000A0074020D808402004D1FFFFB809402020
:1015900000140E408D054000000E0E404FF4002157
:1015A0005E485F4B98475F4B9847034619464FF09C
:1015B00000020B461446DB1844EB04045B1844EBB2
:1015C0000204660146EAD3665D015B1944EB06043A
:1015D0005B1844EB020441F22B714FF0000213EB55
:1015E000010B44EB020C584661464F4C41F22C7201
:1015F0004FF00003A04703460C4618464B4B984754
:101600004FF4002145484A4B9847464B98470346BC
:1016100019464FF000020B461446DB1844EB040455
:101620005B1844EB02044FEA441949EAD3694FEAD4
:10163000431813EB080344EB09045B1844EB020462
:1016400041F22B714FF0000213EB010B44EB020C43
:1016500058466146344C41F22C724FF00003A047CB
:1016600003460C461846314B984742F6EC633B4420
:101670001B68013342F6EC623A44136042F6EC63B5
:101680003B441A6842F6FC633B441B689A4285DB84
:1016900042F6E8633B441B68002B7FF42EAF42F612
:1016A000FC633B441B68022B13D0032B17D0012B88
:1016B00025D1204B07F53C52134403F5FA611D4B2D
:1016C00007F53C5213444FF4FA7218461A4B9847E8
:1016D00023E0142219491A48174B98471DE0194B6B
:1016E00007F53C52134403F5FA61164B07F53C52DB
:1016F00013444FF4FA7218460F4B98470DE041F629
:1017000044733B4403F5FA6141F644733B444FF4A0
:10171000FA721846084B984700BFEEE600120E40DA
:10172000550540004D0F4000491740000100402082
:1017300071054000A4E0FFFF0D104000E80A4020C2
:10174000980A402004D1FFFF53B94AB9002908BFC5
:1017500000281CBF4FF0FF314FF0FF3000F07AB986
:10176000ADF1080C6DE904CE00F006F8DDF804E0F8
:10177000DDE9022304B070472DE9F0478C460D46A1
:101780000446089E002B51D18A4217466DD9B2FA01
:1017900082FEBEF1000F0BD0CEF1200C01FA0EF547
:1017A00020FA0CFC02FA0EF74CEA050C00FA0EF4D3
:1017B0004FEA174A250CBCFBFAF81FFA87F90AFB17
:1017C00018CC45EA0C4508FB09F3AB420AD9ED19E0
:1017D00008F1FF3280F02381AB4240F22081A8F172
:1017E00002083D44ED1AA4B2B5FBFAF00AFB10550D
:1017F00044EA054400FB09F9A14509D9E41900F1BF
:10180000FF3380F00A81A14540F2078102383C4451
:10181000A4EB090440EA08400021002E61D024FA1C
:101820000EF4002334607360BDE8F0878B4207D963
:10183000002E54D0002186E821000846BDE8F0873C
:10184000B3FA83F1002940F08E80AB4202D382428A
:1018500000F2FA80841A65EB03050120AC46002EE5
:101860003FD086E81010BDE8F08712B90127B7FB1A
:10187000F2F7B7FA87FEBEF1000F34D1EB1B3A0C3A
:101880001FFA87FC0121B3FBF2F8250C02FB183389
:1018900045EA03450CFB08F3AB4207D9ED1908F103
:1018A000FF3002D2AB4200F2D1808046ED1AA3B2E3
:1018B000B5FBF2F002FB105543EA05440CFB00FCBB
:1018C000A44507D9E41900F1FF3302D2A44500F280
:1018D000B8801846A4EB0C0440EA08409DE7314666
:1018E0003046BDE8F087CEF1200405FA0EF307FA82
:1018F0000EF720FA04F83A0C25FA04F448EA030833
:10190000B4FBF2F14FEA184502FB11441FFA87FCC1
:1019100045EA044501FB0CF3AB4200FA0EF409D989
:10192000ED1901F1FF3080F08A80AB4240F28780F0
:1019300002393D44EB1A1FFA88F5B3FBF2F002FBC3
:10194000103345EA034500FB0CF3AB4207D9ED1910
:1019500000F1FF386FD2AB426DD902383D44EB1A2B
:1019600040EA01418FE7C1F1200722FA07F88B40D6
:1019700005FA01F448EA030320FA07FE4FEA134C84
:10198000FD404EEA040EB5FBFCF94FEA1E440CFB89
:1019900019551FFA83F844EA054509FB08F4AC42DF
:1019A00002FA01F200FA01FA08D9ED1809F1FF3044
:1019B00043D2AC4241D9A9F102091D442D1B1FFAA3
:1019C0008EFEB5FBFCF00CFB10554EEA054400FB07
:1019D00008F8A04507D9E41800F1FF3529D2A04541
:1019E00027D902381C4440EA0940A4EB0804A0FBB4
:1019F00002894C45C6464D4615D312D056B1BAEBB6
:101A00000E0364EB050404FA07F7CB401F43CC40F8
:101A1000376074600021BDE8F0871846F8E690460C
:101A2000E0E6C245EAD2B8EB020E69EB03050138E5
:101A3000E4E72846D7E7404691E78146BEE70146FE
:101A400078E702383C4445E7084608E7A8F1020871
:101A50003D442BE7704700BF70B50F4E0F4D761B0E
:101A6000B61018BF002405D0013455F8043B984740
:101A7000A642F9D10A4E0B4D761B00F0A7F8B6101E
:101A800018BF002406D0013455F8043B9847A642FD
:101A9000F9D170BD70BD00BFD81B4000D81B4000FD
:101AA000E01B4000D81B4000024B13B1024800F07D
:101AB00005B8704700000000C91A40000023014625
:101AC0001A46184600F01EB838B50A4C0A4D641B79
:101AD000A4100AD004F18043013B05EB8305013CCF
:101AE00055F804399847002CF9D1BDE8384000F08A
:101AF00077B800BFF01B4000EC1B4000704700BFF0
:101B0000704700BF2DE9F8432C4D064628689846DB
:101B10000F469146FFF7F2FF294B1C68D4F8483175
:101B2000002B3ED05A681F2A1CDC02F1010E76B150
:101B300003EB82010124C1F88890D3F88801944016
:101B40002043022EC3F88801C1F8088123D0023255
:101B5000C3F804E0286843F82270FFF7D1FF0020A3
:101B6000BDE8F883174B0BB34FF4C870AFF3008098
:101B70000346D8B1D4F848210260002141600A46EA
:101B8000C4F848014FF0010EC0F88811C0F88C115C
:101B9000002EDCD0CCE7D3F88C110C43C3F88C4179
:101BA000D5E704F5A673C4F84831BBE72868FFF70A
:101BB000A7FF4FF0FF30BDE8F88300BF600F402063
:101BC000C81B400000000000380B4020F8B500BFE3
:101BD000F8BC08BC9E467047A91A40006501400049
:101BE000F8B500BFF8BC08BC9E46704741014000F4
:081BF00088FBFF7F01000000EB
:101BF800BFF35F8F0138FBD17047010000093D003A
:101C08004A01000088010000B8010000B801000086
:101C180000000000B8010000EE0100000B02000007
:101C28000B020000000000000B0200004B02000045
:101C3800EE010000EE01000000000000B801000005
:101C480088010000B8010000000000004A010000FF
:101C580088010000B8010000B80100000000000081
:101C6800B8010000EE0100000B0200000B020000AA
:101C7800000000000B0200004B020000EE01000013
:101C8800EE01000000000000B8010000880100001B
:101C9800B8010000000000004A01000088010000AF
:101CA800B8010000B801000000000000B801000001
:101CB8000B0200004B0200004B0200000000000075
:101CC8004B02000093020000BA020000BA020000B2
:101CD80000000000930200004B0200009302000085
:101CE800B801000000000000B8010000EE0100008B
:101CF8000B0200000B020000000000004B02000075
:101D080093020000B801000000000000B8010000C4
:101D18000B020000EE010000EE01000000000000D0
:101D28000B020000B8010000EE01000000000000F6
:101D3800B8010000B8010000B8010000EE01000081
:101D48000B0200000B020000000000000B02000064
:101D58004B020000EE010000EE0100000000000050
:101D6800B801000088010000B80100000000000070
:101D78004A01000088010000B8010000B801000015
:101D880000000000B8010000EE0100000B02000096
:101D98000B020000000000000B0200004B020000D4
:101DA800EE010000EE01000000000000B801000094
:101DB80088010000B8010000000000004A0100008E
:101DC80088010000B8010000B80100000000000010
:101DD800B80100000B0200004B0200004B0200009B
:101DE800000000004B02000093020000BA0200004D
:101DF800BA02000000000000930200004B0200003D
:101E080093020000B801000000000000B8010000C3
:101E1800EE0100000B0200000B02000000000000B1
:101E28004B02000093020000B8010000000000000F
:101E3800B80100000B020000EE010000EE010000F6
:101E4800000000000B020000B8010000EE010000D5
:101E580000000000930200000000000000000000E5
:101E6800BA02000000000000000000009302000019
:101E780093020000000000001003000000000000B2
:101E8800930200004B020000000000000000000068
:101E98004B02000000000000000000000B020000E0
:101EA8000000000000000000EE0100000B0200002E
:101EB80000000000EE01000000000000B801000072
:101EC800930200000000000000000000BA020000B9
:101ED80000000000000000009302000093020000D0
:101EE8000000000010030000000000009302000042
:101EF8004B02000000000000000000004B02000040
:101F080000000000000000000B02000000000000BC
:101F180000000000EE0100000B02000000000000BD
:101F2800EE01000000000000B80100007D00000084
:101F38007D000000FA0000007D0000007D00000028
:101F48007D0000007D000000FA0000007D00000018
:101F58007D0000007D0000007D000000FA00000008
:101F68007D0000007D0000007D0000007D00000075
:101F7800770100007D0000007D0000007D0000006A
:101F8800FA0000007D0000007D0000007D000000D8
:101F98007D000000FA0000007D0000007D000000C8
:101FA8007D0000007D000000FA0000007D000000B8
:101FB8007D0000007D0000007D000000770100002A
:101FC8007D0000007D0000007D000000FA00000098
:101FD8007D0000007D0000007D0000007D00000005
:101FE800FA0000007D0000007D0000007D00000078
:101FF8007D000000FA0000007D0000007D00000068
:102008007D0000007D0000007D000000FA00000057
:102018007D0000007D0000007D000000FA00000047
:102028007D0000007D000000FA0000007D00000037
:10203800FA0000007D0000007D0000007D00000027
:10204800FA0000007D0000007D0000007D00000017
:102058007D0000007701000077010000FA00000011
:102068007D0000007D0000007D000000FA000000F7
:102078007D0000007D0000007D0000007D00000064
:10208800FA0000007D0000007D0000007D000000D7
:102098007D000000770100007D0000007D00000049
:1020A8007D000000FA0000007D0000007D000000B7
:1020B8007D0000007D000000FA0000007D000000A7
:1020C8007D0000007D0000007D000000FA00000097
:1020D8007D0000007D0000007D0000007D00000004
:1020E800770100007D0000007D0000007D000000F9
:1020F800FA0000007D0000007D0000007D00000067
:102108007D000000FA0000007D0000007D00000056
:102118007D0000007D000000FA0000007D00000046
:102128007D0000007D0000007D0000007D000000B3
:10213800FA0000007D0000007D0000007D00000026
:10214800FA0000007D0000007D000000FA00000099
:102158007D000000FA0000007D0000007D00000006
:102168007D000000FA0000007D0000007D000000F6
:102178007D0000007D00000077010000770100006D
:10218800FA0000007D00000077010000FA0000005E
:102198007D000000770100007D0000007D00000048
:1021A8007D0000007D0000007D0000007D00000033
:1021B8007D0000007D00000077010000FA000000AB
:1021C8007D00000077010000FA0000007D0000009B
:1021D800770100007D0000007D0000007D00000008
:1021E8007D0000007D000000F4010000FA000000FE
:1021F8007D00000077010000FA0000007D0000006B
:10220800770100007D0000007D0000007D000000D7
:102218007D0000007D0000007D0000007D000000C2
:102228007D00000077010000FA0000007D0000003A
:1022380077010000FA0000007D000000770100002F
:102248007D0000007D0000007D0000007D00000092
:102258007D000000F40100004D0A00004D0A000056
:10226800000000004D0A0000000000002D080000DA
:102278004D0A000000000000400C000000000000B3
:102288000000000000000000200600000000000020
:1022980000000000000000002D0800000000000001
:1022A8000000000020060000000000000000000000
:1022B800270500000000000000000000E006000004
:1022C80000000000B80700000000000049070000F7
:1022D800E006000000000000200600004D0A000093
:1022E800400C0000C00D000000000000EA0A0000D9
:1022F800400C0000000000004D0A00000000000033
:102308002D0800002D090000B8070000000000009B
:10231800000000002D080000000000000000000080
:102328002006000000000000000000002705000053
:102338000000000000000000E006000000000000AF
:10234800B80700000000000049070000E006000090
:1023580000000000200600004D0A0000400C0000AC
:10236800C00D000000000000EA0A0000400C000058
:10237800000000004D0A0000000000002D080000C9
:102388002D090000B8070000000000000000000050
:1023980053000000530000005300000053000000E9
:1023A80053000000530000005300000053000000D9
:1023B80053000000530000005300000053000000C9
:1023C80053000000530000005300000053000000B9
:1023D80053000000530000005300000053000000A9
:1023E8005300000053000000530000005300000099
:1023F8005300000053000000530000005300000089
:102408005300000053000000530000005300000078
:102418007000000070000000700000005300000011
:102428005300000053000000530000005300000058
:102438005300000053000000530000005300000048
:102448005300000053000000530000005300000038
:102458005300000053000000530000005300000028
:102468005300000053000000530000005300000018
:102478005300000053000000530000005300000008
:1024880053000000530000005300000070000000DB
:1024980070000000700000005300000053000000AE
:1024A80053000000530000005300000053000000D8
:1024B80053000000530000005300000053000000C8
:1024C8005300000053000000060100000B0200004A
:1024D800DC000000B8010000E9000000D2010000A3
:1024E8000000000000000000060100000B020000D0
:1024F800DC000000B8010000E9000000D201000083
:102508000000000000000000AF0000005D010000B6
:1025180093000000260100009C0000003701000025
:102528000000000000000000AF0000005D01000096
:1025380093000000260100009C0000003701000005
:102548000000000000000000370100001501000035
:1025580026010000150100003701000037010000C6
:10256800D0000000C40000001501000006010000B2
:10257800720100005D010000A5000000D20100000A
:10258800B80100009F01000037010000F7000000BB
:10259800E9000000DC000000D0000000000000009E
:1025A800000000000000000053000000530000007D
:1025B80053000000530000005300000053000000C7
:1025C800A60000004D010000530000005300000069
:1025D80053000000530000005300000053000000A7
:1025E800A60000004D010000530000005300000049
:1025F8005300000053000000530000005300000087
:10260800A60000004D010000530000005300000028
:102618005300000053000000530000005300000066
:10262800A6000000A60000003700000037000000E8
:1026380037000000A6000000A6000000A600000069
:10264800A6000000A6000000A60000003700000059
:102658003700000037000000370000003700000096
:1026680037000000640000006400000064000000FF
:102678006400000064000000640000004D010000D8
:102688004D0100004D010000B8010000B801000034
:10269800B80100005D0100000B020000B801000055
:1026A8005D0100000B020000B801000000000000FE
:1026B800930200009302000093020000BA02000097
:1026C8000B0200009F0100005D0100000B020000EA
:1026D800B801000000000000F4010000F40100004F
:1026E800F40100005E01000096000000F401000003
:1026F8005E010000960000008A020000F40100005C
:10270800F4010000F4010000F40100005E01000083
:1027180096000000F40100005E0100009600000031
:102728008A020000F401000000000000240E40208E
:102738008C0E4020F40E4020000000000000000035
:102748000000000000000000000000000000000081
:102758000000000000000000000000000000000071
:102768000000000000000000000000000000000061
:102778000000000000000000000000000000000051
:102788000000000000000000000000000000000041
:102798000000000000000000000000000000000031
:1027A8000000000000000000000000000000000021
:1027B8000000000000000000000000000000000011
:1027C8000000000000000000000000000000000001
:1027D80001000000000000000E33CDAB34126DE69E
:1027E800ECDE05000B000000000000000000000007
:1027F80000000000000000000000000000000000D1
:1028080000000000000000000000000000000000C0
:1028180000000000000000000000000000000000B0
:1028280000000000000000000000000000000000A0
:042B5800F00F40201A
:0400000500400C01AA
:00000001FF
